{
	"data": {
		"bytecode": {
			"linkReferences": {},
			"object": "6080604052348015600e575f80fd5b506108c08061001c5f395ff3fe608060405234801561000f575f80fd5b5060043610610034575f3560e01c8063b309e6d414610038578063fed1eb8a14610054575b5f80fd5b610052600480360381019061004d91906103da565b610085565b005b61006e60048036038101906100699190610446565b61010b565b60405161007c9291906104e0565b60405180910390f35b6040518060400160405280838152602001828152505f808581526020019081526020015f205f820151815f0190816100bd9190610708565b50602082015181600101559050507fe8c8782f150f5347e89f1a97de31cca786688153d28decafcc0c591dedc37d648383836040516100fe939291906107e6565b60405180910390a1505050565b60605f805f808581526020019081526020015f205f01805461012c9061053b565b90501161016e576040517f08c379a00000000000000000000000000000000000000000000000000000000081526004016101659061086c565b60405180910390fd5b5f808481526020019081526020015f205f015f808581526020019081526020015f20600101548180546101a09061053b565b80601f01602080910402602001604051908101604052809291908181526020018280546101cc9061053b565b80156102175780601f106101ee57610100808354040283529160200191610217565b820191905f5260205f20905b8154815290600101906020018083116101fa57829003601f168201915b5050505050915091509150915091565b5f604051905090565b5f80fd5b5f80fd5b5f819050919050565b61024a81610238565b8114610254575f80fd5b50565b5f8135905061026581610241565b92915050565b5f80fd5b5f80fd5b5f601f19601f8301169050919050565b7f4e487b71000000000000000000000000000000000000000000000000000000005f52604160045260245ffd5b6102b982610273565b810181811067ffffffffffffffff821117156102d8576102d7610283565b5b80604052505050565b5f6102ea610227565b90506102f682826102b0565b919050565b5f67ffffffffffffffff82111561031557610314610283565b5b61031e82610273565b9050602081019050919050565b828183375f83830152505050565b5f61034b610346846102fb565b6102e1565b9050828152602081018484840111156103675761036661026f565b5b61037284828561032b565b509392505050565b5f82601f83011261038e5761038d61026b565b5b813561039e848260208601610339565b91505092915050565b5f819050919050565b6103b9816103a7565b81146103c3575f80fd5b50565b5f813590506103d4816103b0565b92915050565b5f805f606084860312156103f1576103f0610230565b5b5f6103fe86828701610257565b935050602084013567ffffffffffffffff81111561041f5761041e610234565b5b61042b8682870161037a565b925050604061043c868287016103c6565b9150509250925092565b5f6020828403121561045b5761045a610230565b5b5f61046884828501610257565b91505092915050565b5f81519050919050565b5f82825260208201905092915050565b8281835e5f83830152505050565b5f6104a382610471565b6104ad818561047b565b93506104bd81856020860161048b565b6104c681610273565b840191505092915050565b6104da816103a7565b82525050565b5f6040820190508181035f8301526104f88185610499565b905061050760208301846104d1565b9392505050565b7f4e487b71000000000000000000000000000000000000000000000000000000005f52602260045260245ffd5b5f600282049050600182168061055257607f821691505b6020821081036105655761056461050e565b5b50919050565b5f819050815f5260205f209050919050565b5f6020601f8301049050919050565b5f82821b905092915050565b5f600883026105c77fffffffffffffffffffffffffffffffffffffffffffffffffffffffffffffffff8261058c565b6105d1868361058c565b95508019841693508086168417925050509392505050565b5f819050919050565b5f61060c61060761060284610238565b6105e9565b610238565b9050919050565b5f819050919050565b610625836105f2565b61063961063182610613565b848454610598565b825550505050565b5f90565b61064d610641565b61065881848461061c565b505050565b5b8181101561067b576106705f82610645565b60018101905061065e565b5050565b601f8211156106c0576106918161056b565b61069a8461057d565b810160208510156106a9578190505b6106bd6106b58561057d565b83018261065d565b50505b505050565b5f82821c905092915050565b5f6106e05f19846008026106c5565b1980831691505092915050565b5f6106f883836106d1565b9150826002028217905092915050565b61071182610471565b67ffffffffffffffff81111561072a57610729610283565b5b610734825461053b565b61073f82828561067f565b5f60209050601f831160018114610770575f841561075e578287015190505b61076885826106ed565b8655506107cf565b601f19841661077e8661056b565b5f5b828110156107a557848901518255600182019150602085019450602081019050610780565b868310156107c257848901516107be601f8916826106d1565b8355505b6001600288020188555050505b505050505050565b6107e081610238565b82525050565b5f6060820190506107f95f8301866107d7565b818103602083015261080b8185610499565b905061081a60408301846104d1565b949350505050565b7f656c20726567697374726f206e6f2065786973746500000000000000000000005f82015250565b5f61085660158361047b565b915061086182610822565b602082019050919050565b5f6020820190508181035f8301526108838161084a565b905091905056fea2646970667358221220bfc55a081765b413cdd7d1337fddffc29a75a164bd52b0dccd36da9a2998b80564736f6c634300081a0033",
			"opcodes": "PUSH1 0x80 PUSH1 0x40 MSTORE CALLVALUE DUP1 ISZERO PUSH1 0xE JUMPI PUSH0 DUP1 REVERT JUMPDEST POP PUSH2 0x8C0 DUP1 PUSH2 0x1C PUSH0 CODECOPY PUSH0 RETURN INVALID PUSH1 0x80 PUSH1 0x40 MSTORE CALLVALUE DUP1 ISZERO PUSH2 0xF JUMPI PUSH0 DUP1 REVERT JUMPDEST POP PUSH1 0x4 CALLDATASIZE LT PUSH2 0x34 JUMPI PUSH0 CALLDATALOAD PUSH1 0xE0 SHR DUP1 PUSH4 0xB309E6D4 EQ PUSH2 0x38 JUMPI DUP1 PUSH4 0xFED1EB8A EQ PUSH2 0x54 JUMPI JUMPDEST PUSH0 DUP1 REVERT JUMPDEST PUSH2 0x52 PUSH1 0x4 DUP1 CALLDATASIZE SUB DUP2 ADD SWAP1 PUSH2 0x4D SWAP2 SWAP1 PUSH2 0x3DA JUMP JUMPDEST PUSH2 0x85 JUMP JUMPDEST STOP JUMPDEST PUSH2 0x6E PUSH1 0x4 DUP1 CALLDATASIZE SUB DUP2 ADD SWAP1 PUSH2 0x69 SWAP2 SWAP1 PUSH2 0x446 JUMP JUMPDEST PUSH2 0x10B JUMP JUMPDEST PUSH1 0x40 MLOAD PUSH2 0x7C SWAP3 SWAP2 SWAP1 PUSH2 0x4E0 JUMP JUMPDEST PUSH1 0x40 MLOAD DUP1 SWAP2 SUB SWAP1 RETURN JUMPDEST PUSH1 0x40 MLOAD DUP1 PUSH1 0x40 ADD PUSH1 0x40 MSTORE DUP1 DUP4 DUP2 MSTORE PUSH1 0x20 ADD DUP3 DUP2 MSTORE POP PUSH0 DUP1 DUP6 DUP2 MSTORE PUSH1 0x20 ADD SWAP1 DUP2 MSTORE PUSH1 0x20 ADD PUSH0 KECCAK256 PUSH0 DUP3 ADD MLOAD DUP2 PUSH0 ADD SWAP1 DUP2 PUSH2 0xBD SWAP2 SWAP1 PUSH2 0x708 JUMP JUMPDEST POP PUSH1 0x20 DUP3 ADD MLOAD DUP2 PUSH1 0x1 ADD SSTORE SWAP1 POP POP PUSH32 0xE8C8782F150F5347E89F1A97DE31CCA786688153D28DECAFCC0C591DEDC37D64 DUP4 DUP4 DUP4 PUSH1 0x40 MLOAD PUSH2 0xFE SWAP4 SWAP3 SWAP2 SWAP1 PUSH2 0x7E6 JUMP JUMPDEST PUSH1 0x40 MLOAD DUP1 SWAP2 SUB SWAP1 LOG1 POP POP POP JUMP JUMPDEST PUSH1 0x60 PUSH0 DUP1 PUSH0 DUP1 DUP6 DUP2 MSTORE PUSH1 0x20 ADD SWAP1 DUP2 MSTORE PUSH1 0x20 ADD PUSH0 KECCAK256 PUSH0 ADD DUP1 SLOAD PUSH2 0x12C SWAP1 PUSH2 0x53B JUMP JUMPDEST SWAP1 POP GT PUSH2 0x16E JUMPI PUSH1 0x40 MLOAD PUSH32 0x8C379A000000000000000000000000000000000000000000000000000000000 DUP2 MSTORE PUSH1 0x4 ADD PUSH2 0x165 SWAP1 PUSH2 0x86C JUMP JUMPDEST PUSH1 0x40 MLOAD DUP1 SWAP2 SUB SWAP1 REVERT JUMPDEST PUSH0 DUP1 DUP5 DUP2 MSTORE PUSH1 0x20 ADD SWAP1 DUP2 MSTORE PUSH1 0x20 ADD PUSH0 KECCAK256 PUSH0 ADD PUSH0 DUP1 DUP6 DUP2 MSTORE PUSH1 0x20 ADD SWAP1 DUP2 MSTORE PUSH1 0x20 ADD PUSH0 KECCAK256 PUSH1 0x1 ADD SLOAD DUP2 DUP1 SLOAD PUSH2 0x1A0 SWAP1 PUSH2 0x53B JUMP JUMPDEST DUP1 PUSH1 0x1F ADD PUSH1 0x20 DUP1 SWAP2 DIV MUL PUSH1 0x20 ADD PUSH1 0x40 MLOAD SWAP1 DUP2 ADD PUSH1 0x40 MSTORE DUP1 SWAP3 SWAP2 SWAP1 DUP2 DUP2 MSTORE PUSH1 0x20 ADD DUP3 DUP1 SLOAD PUSH2 0x1CC SWAP1 PUSH2 0x53B JUMP JUMPDEST DUP1 ISZERO PUSH2 0x217 JUMPI DUP1 PUSH1 0x1F LT PUSH2 0x1EE JUMPI PUSH2 0x100 DUP1 DUP4 SLOAD DIV MUL DUP4 MSTORE SWAP2 PUSH1 0x20 ADD SWAP2 PUSH2 0x217 JUMP JUMPDEST DUP3 ADD SWAP2 SWAP1 PUSH0 MSTORE PUSH1 0x20 PUSH0 KECCAK256 SWAP1 JUMPDEST DUP2 SLOAD DUP2 MSTORE SWAP1 PUSH1 0x1 ADD SWAP1 PUSH1 0x20 ADD DUP1 DUP4 GT PUSH2 0x1FA JUMPI DUP3 SWAP1 SUB PUSH1 0x1F AND DUP3 ADD SWAP2 JUMPDEST POP POP POP POP POP SWAP2 POP SWAP2 POP SWAP2 POP SWAP2 POP SWAP2 JUMP JUMPDEST PUSH0 PUSH1 0x40 MLOAD SWAP1 POP SWAP1 JUMP JUMPDEST PUSH0 DUP1 REVERT JUMPDEST PUSH0 DUP1 REVERT JUMPDEST PUSH0 DUP2 SWAP1 POP SWAP2 SWAP1 POP JUMP JUMPDEST PUSH2 0x24A DUP2 PUSH2 0x238 JUMP JUMPDEST DUP2 EQ PUSH2 0x254 JUMPI PUSH0 DUP1 REVERT JUMPDEST POP JUMP JUMPDEST PUSH0 DUP2 CALLDATALOAD SWAP1 POP PUSH2 0x265 DUP2 PUSH2 0x241 JUMP JUMPDEST SWAP3 SWAP2 POP POP JUMP JUMPDEST PUSH0 DUP1 REVERT JUMPDEST PUSH0 DUP1 REVERT JUMPDEST PUSH0 PUSH1 0x1F NOT PUSH1 0x1F DUP4 ADD AND SWAP1 POP SWAP2 SWAP1 POP JUMP JUMPDEST PUSH32 0x4E487B7100000000000000000000000000000000000000000000000000000000 PUSH0 MSTORE PUSH1 0x41 PUSH1 0x4 MSTORE PUSH1 0x24 PUSH0 REVERT JUMPDEST PUSH2 0x2B9 DUP3 PUSH2 0x273 JUMP JUMPDEST DUP2 ADD DUP2 DUP2 LT PUSH8 0xFFFFFFFFFFFFFFFF DUP3 GT OR ISZERO PUSH2 0x2D8 JUMPI PUSH2 0x2D7 PUSH2 0x283 JUMP JUMPDEST JUMPDEST DUP1 PUSH1 0x40 MSTORE POP POP POP JUMP JUMPDEST PUSH0 PUSH2 0x2EA PUSH2 0x227 JUMP JUMPDEST SWAP1 POP PUSH2 0x2F6 DUP3 DUP3 PUSH2 0x2B0 JUMP JUMPDEST SWAP2 SWAP1 POP JUMP JUMPDEST PUSH0 PUSH8 0xFFFFFFFFFFFFFFFF DUP3 GT ISZERO PUSH2 0x315 JUMPI PUSH2 0x314 PUSH2 0x283 JUMP JUMPDEST JUMPDEST PUSH2 0x31E DUP3 PUSH2 0x273 JUMP JUMPDEST SWAP1 POP PUSH1 0x20 DUP2 ADD SWAP1 POP SWAP2 SWAP1 POP JUMP JUMPDEST DUP3 DUP2 DUP4 CALLDATACOPY PUSH0 DUP4 DUP4 ADD MSTORE POP POP POP JUMP JUMPDEST PUSH0 PUSH2 0x34B PUSH2 0x346 DUP5 PUSH2 0x2FB JUMP JUMPDEST PUSH2 0x2E1 JUMP JUMPDEST SWAP1 POP DUP3 DUP2 MSTORE PUSH1 0x20 DUP2 ADD DUP5 DUP5 DUP5 ADD GT ISZERO PUSH2 0x367 JUMPI PUSH2 0x366 PUSH2 0x26F JUMP JUMPDEST JUMPDEST PUSH2 0x372 DUP5 DUP3 DUP6 PUSH2 0x32B JUMP JUMPDEST POP SWAP4 SWAP3 POP POP POP JUMP JUMPDEST PUSH0 DUP3 PUSH1 0x1F DUP4 ADD SLT PUSH2 0x38E JUMPI PUSH2 0x38D PUSH2 0x26B JUMP JUMPDEST JUMPDEST DUP2 CALLDATALOAD PUSH2 0x39E DUP5 DUP3 PUSH1 0x20 DUP7 ADD PUSH2 0x339 JUMP JUMPDEST SWAP2 POP POP SWAP3 SWAP2 POP POP JUMP JUMPDEST PUSH0 DUP2 SWAP1 POP SWAP2 SWAP1 POP JUMP JUMPDEST PUSH2 0x3B9 DUP2 PUSH2 0x3A7 JUMP JUMPDEST DUP2 EQ PUSH2 0x3C3 JUMPI PUSH0 DUP1 REVERT JUMPDEST POP JUMP JUMPDEST PUSH0 DUP2 CALLDATALOAD SWAP1 POP PUSH2 0x3D4 DUP2 PUSH2 0x3B0 JUMP JUMPDEST SWAP3 SWAP2 POP POP JUMP JUMPDEST PUSH0 DUP1 PUSH0 PUSH1 0x60 DUP5 DUP7 SUB SLT ISZERO PUSH2 0x3F1 JUMPI PUSH2 0x3F0 PUSH2 0x230 JUMP JUMPDEST JUMPDEST PUSH0 PUSH2 0x3FE DUP7 DUP3 DUP8 ADD PUSH2 0x257 JUMP JUMPDEST SWAP4 POP POP PUSH1 0x20 DUP5 ADD CALLDATALOAD PUSH8 0xFFFFFFFFFFFFFFFF DUP2 GT ISZERO PUSH2 0x41F JUMPI PUSH2 0x41E PUSH2 0x234 JUMP JUMPDEST JUMPDEST PUSH2 0x42B DUP7 DUP3 DUP8 ADD PUSH2 0x37A JUMP JUMPDEST SWAP3 POP POP PUSH1 0x40 PUSH2 0x43C DUP7 DUP3 DUP8 ADD PUSH2 0x3C6 JUMP JUMPDEST SWAP2 POP POP SWAP3 POP SWAP3 POP SWAP3 JUMP JUMPDEST PUSH0 PUSH1 0x20 DUP3 DUP5 SUB SLT ISZERO PUSH2 0x45B JUMPI PUSH2 0x45A PUSH2 0x230 JUMP JUMPDEST JUMPDEST PUSH0 PUSH2 0x468 DUP5 DUP3 DUP6 ADD PUSH2 0x257 JUMP JUMPDEST SWAP2 POP POP SWAP3 SWAP2 POP POP JUMP JUMPDEST PUSH0 DUP2 MLOAD SWAP1 POP SWAP2 SWAP1 POP JUMP JUMPDEST PUSH0 DUP3 DUP3 MSTORE PUSH1 0x20 DUP3 ADD SWAP1 POP SWAP3 SWAP2 POP POP JUMP JUMPDEST DUP3 DUP2 DUP4 MCOPY PUSH0 DUP4 DUP4 ADD MSTORE POP POP POP JUMP JUMPDEST PUSH0 PUSH2 0x4A3 DUP3 PUSH2 0x471 JUMP JUMPDEST PUSH2 0x4AD DUP2 DUP6 PUSH2 0x47B JUMP JUMPDEST SWAP4 POP PUSH2 0x4BD DUP2 DUP6 PUSH1 0x20 DUP7 ADD PUSH2 0x48B JUMP JUMPDEST PUSH2 0x4C6 DUP2 PUSH2 0x273 JUMP JUMPDEST DUP5 ADD SWAP2 POP POP SWAP3 SWAP2 POP POP JUMP JUMPDEST PUSH2 0x4DA DUP2 PUSH2 0x3A7 JUMP JUMPDEST DUP3 MSTORE POP POP JUMP JUMPDEST PUSH0 PUSH1 0x40 DUP3 ADD SWAP1 POP DUP2 DUP2 SUB PUSH0 DUP4 ADD MSTORE PUSH2 0x4F8 DUP2 DUP6 PUSH2 0x499 JUMP JUMPDEST SWAP1 POP PUSH2 0x507 PUSH1 0x20 DUP4 ADD DUP5 PUSH2 0x4D1 JUMP JUMPDEST SWAP4 SWAP3 POP POP POP JUMP JUMPDEST PUSH32 0x4E487B7100000000000000000000000000000000000000000000000000000000 PUSH0 MSTORE PUSH1 0x22 PUSH1 0x4 MSTORE PUSH1 0x24 PUSH0 REVERT JUMPDEST PUSH0 PUSH1 0x2 DUP3 DIV SWAP1 POP PUSH1 0x1 DUP3 AND DUP1 PUSH2 0x552 JUMPI PUSH1 0x7F DUP3 AND SWAP2 POP JUMPDEST PUSH1 0x20 DUP3 LT DUP2 SUB PUSH2 0x565 JUMPI PUSH2 0x564 PUSH2 0x50E JUMP JUMPDEST JUMPDEST POP SWAP2 SWAP1 POP JUMP JUMPDEST PUSH0 DUP2 SWAP1 POP DUP2 PUSH0 MSTORE PUSH1 0x20 PUSH0 KECCAK256 SWAP1 POP SWAP2 SWAP1 POP JUMP JUMPDEST PUSH0 PUSH1 0x20 PUSH1 0x1F DUP4 ADD DIV SWAP1 POP SWAP2 SWAP1 POP JUMP JUMPDEST PUSH0 DUP3 DUP3 SHL SWAP1 POP SWAP3 SWAP2 POP POP JUMP JUMPDEST PUSH0 PUSH1 0x8 DUP4 MUL PUSH2 0x5C7 PUSH32 0xFFFFFFFFFFFFFFFFFFFFFFFFFFFFFFFFFFFFFFFFFFFFFFFFFFFFFFFFFFFFFFFF DUP3 PUSH2 0x58C JUMP JUMPDEST PUSH2 0x5D1 DUP7 DUP4 PUSH2 0x58C JUMP JUMPDEST SWAP6 POP DUP1 NOT DUP5 AND SWAP4 POP DUP1 DUP7 AND DUP5 OR SWAP3 POP POP POP SWAP4 SWAP3 POP POP POP JUMP JUMPDEST PUSH0 DUP2 SWAP1 POP SWAP2 SWAP1 POP JUMP JUMPDEST PUSH0 PUSH2 0x60C PUSH2 0x607 PUSH2 0x602 DUP5 PUSH2 0x238 JUMP JUMPDEST PUSH2 0x5E9 JUMP JUMPDEST PUSH2 0x238 JUMP JUMPDEST SWAP1 POP SWAP2 SWAP1 POP JUMP JUMPDEST PUSH0 DUP2 SWAP1 POP SWAP2 SWAP1 POP JUMP JUMPDEST PUSH2 0x625 DUP4 PUSH2 0x5F2 JUMP JUMPDEST PUSH2 0x639 PUSH2 0x631 DUP3 PUSH2 0x613 JUMP JUMPDEST DUP5 DUP5 SLOAD PUSH2 0x598 JUMP JUMPDEST DUP3 SSTORE POP POP POP POP JUMP JUMPDEST PUSH0 SWAP1 JUMP JUMPDEST PUSH2 0x64D PUSH2 0x641 JUMP JUMPDEST PUSH2 0x658 DUP2 DUP5 DUP5 PUSH2 0x61C JUMP JUMPDEST POP POP POP JUMP JUMPDEST JUMPDEST DUP2 DUP2 LT ISZERO PUSH2 0x67B JUMPI PUSH2 0x670 PUSH0 DUP3 PUSH2 0x645 JUMP JUMPDEST PUSH1 0x1 DUP2 ADD SWAP1 POP PUSH2 0x65E JUMP JUMPDEST POP POP JUMP JUMPDEST PUSH1 0x1F DUP3 GT ISZERO PUSH2 0x6C0 JUMPI PUSH2 0x691 DUP2 PUSH2 0x56B JUMP JUMPDEST PUSH2 0x69A DUP5 PUSH2 0x57D JUMP JUMPDEST DUP2 ADD PUSH1 0x20 DUP6 LT ISZERO PUSH2 0x6A9 JUMPI DUP2 SWAP1 POP JUMPDEST PUSH2 0x6BD PUSH2 0x6B5 DUP6 PUSH2 0x57D JUMP JUMPDEST DUP4 ADD DUP3 PUSH2 0x65D JUMP JUMPDEST POP POP JUMPDEST POP POP POP JUMP JUMPDEST PUSH0 DUP3 DUP3 SHR SWAP1 POP SWAP3 SWAP2 POP POP JUMP JUMPDEST PUSH0 PUSH2 0x6E0 PUSH0 NOT DUP5 PUSH1 0x8 MUL PUSH2 0x6C5 JUMP JUMPDEST NOT DUP1 DUP4 AND SWAP2 POP POP SWAP3 SWAP2 POP POP JUMP JUMPDEST PUSH0 PUSH2 0x6F8 DUP4 DUP4 PUSH2 0x6D1 JUMP JUMPDEST SWAP2 POP DUP3 PUSH1 0x2 MUL DUP3 OR SWAP1 POP SWAP3 SWAP2 POP POP JUMP JUMPDEST PUSH2 0x711 DUP3 PUSH2 0x471 JUMP JUMPDEST PUSH8 0xFFFFFFFFFFFFFFFF DUP2 GT ISZERO PUSH2 0x72A JUMPI PUSH2 0x729 PUSH2 0x283 JUMP JUMPDEST JUMPDEST PUSH2 0x734 DUP3 SLOAD PUSH2 0x53B JUMP JUMPDEST PUSH2 0x73F DUP3 DUP3 DUP6 PUSH2 0x67F JUMP JUMPDEST PUSH0 PUSH1 0x20 SWAP1 POP PUSH1 0x1F DUP4 GT PUSH1 0x1 DUP2 EQ PUSH2 0x770 JUMPI PUSH0 DUP5 ISZERO PUSH2 0x75E JUMPI DUP3 DUP8 ADD MLOAD SWAP1 POP JUMPDEST PUSH2 0x768 DUP6 DUP3 PUSH2 0x6ED JUMP JUMPDEST DUP7 SSTORE POP PUSH2 0x7CF JUMP JUMPDEST PUSH1 0x1F NOT DUP5 AND PUSH2 0x77E DUP7 PUSH2 0x56B JUMP JUMPDEST PUSH0 JUMPDEST DUP3 DUP2 LT ISZERO PUSH2 0x7A5 JUMPI DUP5 DUP10 ADD MLOAD DUP3 SSTORE PUSH1 0x1 DUP3 ADD SWAP2 POP PUSH1 0x20 DUP6 ADD SWAP5 POP PUSH1 0x20 DUP2 ADD SWAP1 POP PUSH2 0x780 JUMP JUMPDEST DUP7 DUP4 LT ISZERO PUSH2 0x7C2 JUMPI DUP5 DUP10 ADD MLOAD PUSH2 0x7BE PUSH1 0x1F DUP10 AND DUP3 PUSH2 0x6D1 JUMP JUMPDEST DUP4 SSTORE POP JUMPDEST PUSH1 0x1 PUSH1 0x2 DUP9 MUL ADD DUP9 SSTORE POP POP POP JUMPDEST POP POP POP POP POP POP JUMP JUMPDEST PUSH2 0x7E0 DUP2 PUSH2 0x238 JUMP JUMPDEST DUP3 MSTORE POP POP JUMP JUMPDEST PUSH0 PUSH1 0x60 DUP3 ADD SWAP1 POP PUSH2 0x7F9 PUSH0 DUP4 ADD DUP7 PUSH2 0x7D7 JUMP JUMPDEST DUP2 DUP2 SUB PUSH1 0x20 DUP4 ADD MSTORE PUSH2 0x80B DUP2 DUP6 PUSH2 0x499 JUMP JUMPDEST SWAP1 POP PUSH2 0x81A PUSH1 0x40 DUP4 ADD DUP5 PUSH2 0x4D1 JUMP JUMPDEST SWAP5 SWAP4 POP POP POP POP JUMP JUMPDEST PUSH32 0x656C20726567697374726F206E6F206578697374650000000000000000000000 PUSH0 DUP3 ADD MSTORE POP JUMP JUMPDEST PUSH0 PUSH2 0x856 PUSH1 0x15 DUP4 PUSH2 0x47B JUMP JUMPDEST SWAP2 POP PUSH2 0x861 DUP3 PUSH2 0x822 JUMP JUMPDEST PUSH1 0x20 DUP3 ADD SWAP1 POP SWAP2 SWAP1 POP JUMP JUMPDEST PUSH0 PUSH1 0x20 DUP3 ADD SWAP1 POP DUP2 DUP2 SUB PUSH0 DUP4 ADD MSTORE PUSH2 0x883 DUP2 PUSH2 0x84A JUMP JUMPDEST SWAP1 POP SWAP2 SWAP1 POP JUMP INVALID LOG2 PUSH5 0x6970667358 0x22 SLT KECCAK256 0xBF 0xC5 GAS ADDMOD OR PUSH6 0xB413CDD7D133 PUSH32 0xDDFFC29A75A164BD52B0DCCD36DA9A2998B80564736F6C634300081A00330000 "
		},
		"gasEstimates": {
			"creation": {
				"codeDepositCost": "448000",
				"executionCost": "478",
				"totalCost": "448478"
			},
			"external": {
				"addRegister(uint256,string,int256)": "infinite",
				"getRegister(uint256)": "infinite"
			}
		},
		"methodIdentifiers": {
			"addRegister(uint256,string,int256)": "b309e6d4",
			"getRegister(uint256)": "fed1eb8a"
		}
	},
	"abi": [
		{
			"anonymous": false,
			"inputs": [
				{
					"indexed": false,
					"internalType": "uint256",
					"name": "idRegister",
					"type": "uint256"
				},
				{
					"indexed": false,
					"internalType": "string",
					"name": "humedad",
					"type": "string"
				},
				{
					"indexed": false,
					"internalType": "int256",
					"name": "temperatura",
					"type": "int256"
				}
			],
			"name": "registroAnyadido",
			"type": "event"
		},
		{
			"inputs": [
				{
					"internalType": "uint256",
					"name": "_idRegister",
					"type": "uint256"
				},
				{
					"internalType": "string",
					"name": "_humedad",
					"type": "string"
				},
				{
					"internalType": "int256",
					"name": "_temperatura",
					"type": "int256"
				}
			],
			"name": "addRegister",
			"outputs": [],
			"stateMutability": "nonpayable",
			"type": "function"
		},
		{
			"inputs": [
				{
					"internalType": "uint256",
					"name": "_idRegister",
					"type": "uint256"
				}
			],
			"name": "getRegister",
			"outputs": [
				{
					"internalType": "string",
					"name": "",
					"type": "string"
				},
				{
					"internalType": "int256",
					"name": "",
					"type": "int256"
				}
			],
			"stateMutability": "view",
			"type": "function"
		}
	]
}